:1000000045C0000060C000005EC000005CC0000091
:100010005AC0000058C0000056C0000054C0000084
:1000200052C0000050C000004EC000004CC0000094
:100030004AC000006DC0000046C0000044C000007F
:1000400042C0000040C000003EC000003CC00000B4
:100050003AC0000038C0000036C0000034C00000C4
:1000600032C0000030C000002EC000002CC00000D4
:100070002AC0000028C0000026C0000024C00000E4
:1000800022C0000020C000001EC0000011241FBEBE
:10009000CFEFD0E4DEBFCDBF11E0A0E0B1E0E6E2FB
:1000A000F2E000E00BBF02C007900D92A430B10750
:1000B000D9F721E0A4E0B1E001C01D92AB30B20756
:1000C000E1F799D0AEC09CCF8BE0809381008DE7A3
:1000D00090E0909389008093880082E080936F0085
:1000E000109285001092840080910001909101018E
:1000F000A0910201B0910301809305019093060144
:10010000A0930701B09308018FB780688FBF08954F
:100110001F920F920FB60F9211248F939F93AF935C
:10012000BF938091050190910601A0910701B091C4
:1001300008010197A109B109809305019093060177
:10014000A0930701B0930801892B8A2B8B2B99F47C
:1001500081E0809309018091000190910101A091BB
:100160000201B09103018093050190930601A093D1
:100170000701B0930801BF91AF919F918F910F90AC
:100180000FBE0F901F9018956093000170930101AE
:10019000809302019093030160930501709306011F
:1001A0008093070190930801089580910A0181309E
:1001B00051F028F0823069F0833091F015C081E071
:1001C00080930A0114C082E080930A0180930401A5
:1001D000089583E080930A0184E0809304010895E8
:1001E00081E080930A0103C010920A01089581E022
:1001F0008093040108958FEF84B915B868EE73E019
:1002000080E090E0C1DF60DF10920A01CEDF8091D4
:10021000040185B9809109018823E1F31092090155
:06022000F5CFF894FFCFBA
:0402260001000000D3
:00000001FF
