S01B00006A676166663030315F6C6162365F70617274322E737265636E
S11300004CC0000067C0000065C0000063C0000071
S113001061C000005FC000005DC000005BC0000064
S113002059C0000057C0000055C0000053C0000074
S113003051C0000074C000004DC000004BC000005F
S113004049C0000047C0000045C0000043C0000094
S113005041C000003FC000003DC000003BC00000A4
S113006039C0000037C0000035C0000033C00000B4
S113007031C000002FC000002DC000002BC00000C4
S113008029C0000027C0000025C00000E700EB00E5
S1130090F500FB0005010B01150111241FBECFEF74
S11300A0D0E4DEBFCDBF11E0A0E0B1E0E2EBF2E0CE
S11300B000E00BBF02C007900D92A430B107D9F73E
S11300C021E0A4E0B1E001C01D92AB30B207E1F73A
S11300D0CDD0EDC095CF8BE0809381008DE790E08B
S11300E0909389008093880082E080936F0010923F
S11300F08500109284008091000190910101A091EB
S11301000201B09103018093050190930601A0932D
S11301100701B09308018FB780688FBF08951F92BD
S11301200F920FB60F9211248F939F93AF93BF93A7
S11301308091050190910601A0910701B0910801F9
S11301400197A109B1098093050190930601A09339
S11301500701B0930801892B8A2B8B2B99F481E03A
S1130160809309018091000190910101A091020105
S1130170B09103018093050190930601A0930701B8
S1130180B0930801BF91AF919F918F910F900FBED3
S11301900F901F9018956093000170930101809354
S11301A0020190930301609305017093060180930B
S11301B00701909308010895E0910A018E2F90E0C1
S11301C087309105C0F5FC01EA5BFF4F67C081E011
S11301D080930A0143C0009904C082E080930A011D
S11301E041C083E080930A0129C000993BC081E0AB
S11301F080930A0133C0009904C084E080930A010B
S113020021C085E080930A0121C000991BC083E0CE
S113021080930A0113C0009904C086E080930A0108
S113022019C081E080930A0119C0009913C085E0C8
S113023080930A010BC010920A01089582E0809312
S11302400401089582E080930401089584E080937A
S11302500401089584E080930401089581E080936B
S11302600401089581E080930401089511B88FEF8B
S113027082B984B915B86CE271E080E090E08BDF5C
S11302802ADF10920A0198DF8091040185B98091D8
S113029009018823E1F310920901F5CFEE0FFF1F46
S11302A00024001C0BBE0790F691E02D0994F894ED
S10502B0FFCF7A
S10702B20100000043
S9030000FC
